{
  "contractName": "DappToken",
  "abi": [
    {
      "constant": true,
      "inputs": [],
      "name": "totalSupply",
      "outputs": [
        {
          "name": "",
          "type": "uint256"
        }
      ],
      "payable": false,
      "stateMutability": "view",
      "type": "function"
    },
    {
      "inputs": [],
      "payable": false,
      "stateMutability": "nonpayable",
      "type": "constructor"
    }
  ],
  "bytecode": "0x608060405234801561001057600080fd5b50620f4240600081905550609e806100296000396000f300608060405260043610603f576000357c0100000000000000000000000000000000000000000000000000000000900463ffffffff16806318160ddd146044575b600080fd5b348015604f57600080fd5b506056606c565b6040518082815260200191505060405180910390f35b600054815600a165627a7a723058207af1a7ab79c166754576ed46ebdd2ccebaa467397a34d8fe51eab94bb7879cfd0029",
  "source": "pragma solidity ^0.4.2;\n\ncontract DappToken {\n    // constructor \n    // Set the total number of tokens\n    // Read the total number of tokens\n    uint256 public totalSupply;\n\n    function DappToken () public {\n        totalSupply = 1000000;\n    }\n}\n",
  "sourcePath": "/home/dave/token-sale/contracts/DappToken.sol",
  "compiler": {
    "name": "solc",
    "version": "0.4.24+commit.e67f0147.Emscripten.clang"
  },
  "schemaVersion": "2.0.1",
  "updatedAt": "2018-08-24T04:18:28.628Z"
}